:100000000C947C040C94A4040C94A4040C94A404F8
:100010000C94A4040C94A4040C94A4040C94A404C0
:100020000C94A4040C94A4040C9451100C94C010CF
:100030000C94A4040C94A4040C94A4040C94A404A0
:100040000C94A4040C94A4040C94A4040C94A40490
:100050000C94A4040C94A4040C94A4040C94F21224
:100060000C94A4040C94A4040C94A4040C94A40470
:100070000C94A4040C94A4040C94A4040C94A40460
:100080000C943C130C94A4040C94A4040C94A404A9
:100090000C94A4040C94A4040C94A4040C94A40440
:1000A0000C94A4040C94A4040C94A40405A84CCDB2
:1000B000B2D44EB93836A9020C50B9918688083CA2
:1000C000A6AAAA2ABE000000803F00000000003E51
:1000D0005B4F5B3E3E6B4F6B3E1C3E7C3E1C183CB8
:1000E0007E3C181C577D571C1C5E7F5E1C00183C14
:1000F0001800FFE7C3E7FF0018241800FFE7DBE75D
:10010000FF30483A060E2629792926407F05050743
:10011000407F05253F5A3CE73C5A7F3E1C1C08089F
:100120001C1C3E7F14227F22145F5F005F5F060964
:100130007F017F006689956A606060606094A2FFBD
:10014000A29408047E040810207E201008082A1CAF
:1001500008081C2A08081E101010100C1E0C1E0C7B
:1001600030383E3830060E3E0E060000000000001B
:10017000005F00000007000700147F147F14242A8A
:100180007F2A12231308646236495620500008075C
:100190000300001C2241000041221C002A1C7F1C7D
:1001A0002A08083E0808008070300008080808087F
:1001B000000060600020100804023E5149453E00E6
:1001C000427F400072494949462141494D33181444
:1001D000127F1027454545393C4A49493141211193
:1001E00009073649494936464949291E0000140085
:1001F00000004034000000081422411414141414A8
:10020000004122140802015909063E415D594E7C05
:100210001211127C7F494949363E414141227F41BA
:1002200041413E7F494949417F090909013E414118
:1002300051737F0808087F00417F41002040413F03
:10024000017F081422417F404040407F021C027F12
:100250007F0408107F3E4141413E7F090909063E67
:100260004151215E7F091929462649494932030136
:100270007F01033F4040403F1F2040201F3F403848
:10028000403F631408146303047804036159494D23
:1002900043007F4141410204081020004141417F59
:1002A00004020102044040404040000307080020CF
:1002B000545478407F2844443838444444283844CF
:1002C00044287F385454541800087E090218A4A406
:1002D0009C787F0804047800447D40002040403D25
:1002E000007F1028440000417F40007C047804789F
:1002F0007C080404783844444438FC182424181832
:10030000242418FC7C08040408485454542404048D
:100310003F44243C4040207C1C2040201C3C40307A
:10032000403C44281028444C9090907C4464544CA9
:100330004400083641000000770000004136080004
:1003400002010204023C2623263C1EA1A161123AAE
:100350004040207A385454555921555579412154FB
:10036000547841215554784020545579400C1E5200
:1003700072123955555559395454545939555454A4
:10038000580000457C410002457D420001457C400B
:10039000F0292429F0F0282528F07C545545002028
:1003A00054547C547C0A097F4932494949323248C5
:1003B000484832324A4848303A4141217A3A42402C
:1003C0002078009DA0A07D39444444393D40404000
:1003D0003D3C24FF2424487E4943662B2FFC2F2BD1
:1003E000FF0929F620C0887E090320545479410072
:1003F00000447D413048484A32384040227A007AF1
:100400000A0A727D0D19317D2629292F28262929CE
:10041000292630484D4020380808080808080808F0
:10042000382F10C8ACBA2F102834FA00007B000017
:1004300008142A142222142A14089500220095AACE
:10044000005500AAAA55AA55AA000000FF001010E6
:1004500010FF00141414FF001010FF00FF1010F024
:1004600010F0141414FC001414F700FF0000FF0037
:10047000FF1414F404FC141417101F10101F101F85
:100480001414141F00101010F0000000001F1010B2
:1004900010101F10101010F010000000FF101010AE
:1004A000101010101010FF10000000FF140000FFCB
:1004B00000FF00001F10170000FC04F414141710B4
:1004C000171414F404F40000FF00F71414141414A7
:1004D0001414F700F7141414171410101F101F141D
:1004E0001414F4141010F010F000001F101F00007E
:1004F000001F14000000FC140000F010F01010FFAA
:1005000010FF141414FF141010101F00000000F04E
:1005100010FFFFFFFFFFF0F0F0F0F0FFFFFF000023
:10052000000000FFFF0F0F0F0F0F38444438447CCA
:100530002A2A3E147E02020606027E027E026355CD
:100540004941633844443C04407E201E2006027E1C
:10055000020299A5E7A5991C2A492A1C4C7201722E
:100560004C304A4D4D303048784830BC625A463D98
:100570003E494949007E0101017E2A2A2A2A2A444D
:10058000445F444440514A444040444A5140000082
:10059000FF0103E080FF000008086B6B083612368D
:1005A0002436060F090F060000181800000010106E
:1005B000003040FF0101001F01011E00191D17122C
:1005C000003C3C3C3C000000000000B00000A1707A
:1005D000E150964F26900F1D070C009669004AE4E3
:1005E0004A0048444000806810000F99FB8F9DBD71
:1005F000BBFB77D4D4DF1F1A1AFE7F5D5DFF805AE4
:100600000000A0A4AA0010BA3400FF5953F3FF9BC6
:100610009B9EFFB9B996FF9595D19FF4940FFC2945
:100620005F91FF1838F8FF9294FFFF95D5F7BFB59B
:10063000DDD7F18F81F1F788C8F779C6467909FDD2
:100640009B090196F8008281828050716200775682
:10065000560076763700A2B7730107720600782736
:10066000500073347400775176007F55F70047715E
:100670001000324772007364730015A27500616741
:100680009400009F6060F4F2F6F2D5F08D14A1C8DA
:1006900081CFD9F1AF20001309EF2929ED00EF0533
:1006A00005EF00EF61632F00EFABABE90101010142
:1006B0000000010100000101010100010001005AD8
:1006C0001DF8FEFEFFFFEFFFFFFFFE9C000000E0B5
:1006D000F8FEFFFF7F7FFFFEFEF8E00000F0FEFF68
:1006E000FFFFFFFFFEF8FCFFFFFFFFFE0000C0F072
:1006F000FCFEFFFF7FFFFFFEFCF0C00000FCFEFFE2
:10070000FFFFFFFEFCF8FEFFFFFFFEF80000E0F831
:10071000FEFFFF7F7FFFFEFEF8E000071F1F3F3F49
:100720003DBDBFBF9F8F86000F1F3F3F3F1F0F0F75
:100730009FBFBFBF9F8F00071F3F3F3F1F03079F04
:100740009FBFBFBF9F8F00001F3F3FBFBF9F871F3F
:100750003F3FBFBF1F00001F3F3FBFBF8F838F9F23
:10076000BFBF3F3F1F01000F9FBFBFBF9F8F0F1F26
:100770003F3F3F1F0F000000F0FEFFFFFFFFEFFFB6
:10078000FFFFFF3C0000F0FCFFFFFFFFBFBFFFFFCC
:10079000FFFFFCF000F8FEFFFFFFFFFF9F8F8F8F32
:1007A0008F0600FEFFFFFFFFFFFEFEFFFFDF8F0053
:1007B0000000FEFFFFFFFFFFFFFF6F0F070000FCC1
:1007C000FEFFFFFFEFEFFFFFFFFE00000000000055
:1007D0000000010F1F1F1F1F03070F1F1F1F0E0009
:1007E00000030F0F1F1F1F1F1F1F0F0F030000010C
:1007F000030F0F1F1F1F1F1F1F1F0F0700070F1FB4
:100800001F1F0F070F1F1F1F1F0E0000070F1F1FA7
:100810001F1F1F1F1F1E0E0000070F1F1F1F0F038C
:100820000F1F1F1F0F000000004245535400534389
:100830004F524500323032350042414E414E412048
:100840004A414D0041524455424F5900464F5220B3
:1008500054484500524F434B54524F4E4943410078
:100860004D41444520425900A5001000AF00220030
:100870000080060122004A0122000B024400008091
:10088000A5002200AF0022000080080B0002020237
:10089000000009040000010202000005240010010C
:1008A00005240101010424020605240600010705B0
:1008B000810310004009040100020A00000007053E
:1008C00002024000000705830240000004030904FF
:1008D00012010002EF0201404123368000010102B3
:1008E000030141726475696E6F204C4C4300417284
:1008F0006475626F79009D1311241FBECFEFDAE09B
:10090000DEBFCDBF11E0A0E0B1E0E6E4F2E402C05A
:1009100005900D92A835B107D9F726E0A8E5B1E01A
:1009200001C01D92AC33B207E1F714E0CCE7D4E08C
:1009300004C02197FE010E941B21CB37D107C9F7C4
:100940000E942D140C9421210C94000080916B01C5
:100950000895E7E2F2E080E0A0E0B8E000800EBC9D
:100960008111012C1197A0FDFDCF0192B9F70DB4B3
:10097000089580E0E7E2F2E081118FEF0024819397
:100980008193819381930394D1F70895FC01809121
:100990009001882311F13FB7F89482E08093E90039
:1009A0002091F200822F90E01816190614F481E0CD
:1009B00090E0882339F0289844E640938F014091D5
:1009C000F1004083222339F02091F200211103C06D
:1009D0002BE62093E8003FBF08958FEF9FEF089527
:1009E0002FB7F89483E08093E9009091E800892F75
:1009F000807295FF04C09091F20080E4891B2FBFA4
:100A000008958091870181110DC082E08093830158
:100A100084E080938401109286011092850181E028
:100A20008093870183E891E00895CF93DF931F922D
:100A3000CDB7DEB76983DC01ED91FC910280F381D3
:100A4000E02D41E050E0BE016F5F7F4F09950F90B0
:100A5000DF91CF91089583E08093E9008091F200C7
:100A6000882319F08AE38093E80008950E94F00437
:100A700090E00895CF93DF931F92CDB7DEB7FC01CE
:100A80008485958597FD08C02FEF3FEF3587248734
:100A90000F90DF91CF910895CE0101960E94C60478
:100AA000019719F4898190E0F3CF8FEF9FEFF0CF9A
:100AB0000F931F93CF93DF931F92CDB7DEB78C01B7
:100AC000FC018485958597FF0BC0CE0101960E949D
:100AD000C604019771F4898190E0F80195878487B5
:100AE000F801848595850F90DF91CF911F910F912B
:100AF00008958FEF9FEFF1CFFC018485958597FDD9
:100B00000BC09FB7F89482E08093E9008091F200D7
:100B10009FBF90E0019608959FB7F89482E080937C
:100B2000E9008091F2009FBF90E0089540917D011F
:100B300050917E0120917B0130917C014217530737
:100B4000B4F49091E8009570E1F39091E80092FD83
:100B500019C08093F10080917D0190917E010196F2
:100B60008F739927892B19F48EEF8093E800809179
:100B70007D0190917E01019690937E0180937D018D
:100B800081E0089580E00895EF92FF920F931F9304
:100B9000CF93DF93F82E192FE62E042F81E0860FD6
:100BA000880F0E94960583E00E949605CF2DD12FD5
:100BB000EC0EFD2EF11CCE15DF05B9F007FF13C0BA
:100BC000FE0184910E949605182F80E00E949605F0
:100BD000812321968111EFCFDF91CF911F910F914A
:100BE000FF90EF9008958881EDCF81E0F5CFDF92FF
:100BF000EF92FF920F931F93CF93DF93D82E8A012A
:100C0000EB017B01E40EF51ECE15DF0559F0D7FE92
:100C100012C0FE0184910E94960521968111F4CFA5
:100C20000FEF1FEFC801DF91CF911F910F91FF9040
:100C3000EF90DF9008958881EECF0F931F93CF93AD
:100C4000DF931F92CDB7DEB782E0898342E450E0A4
:100C50006AE878E080E80E94F7050E940105DC015F
:100C600012960D911C910115110589F0D801ED9195
:100C7000FC910280F381E02DBE016F5F7F4FC801C0
:100C8000099597FD04C0F80100851185ECCF898195
:100C90000F90DF91CF911F910F910895615030F027
:100CA0002091F100FC0120830196F8CF289884E67A
:100CB00080938F010895AF92BF92CF92DF92EF920F
:100CC000FF920F931F93CF93DF936C017B018B01F6
:100CD000040F151FEB015E01AE18BF08C017D10746
:100CE00059F06991D601ED91FC910190F081E02DD0
:100CF000C6010995892B79F7C501DF91CF911F9125
:100D00000F91FF90EF90DF90CF90BF90AF9008953C
:100D10003FB7F8948091670190916801A0916901B3
:100D2000B0916A0126B5A89B05C02F3F19F0019626
:100D3000A11DB11D3FBFBA2FA92F982F8827BC0135
:100D4000CD01620F711D811D911D42E0660F771F5D
:100D5000881F991F4A95D1F708958F929F92AF925D
:100D6000BF92CF92DF92EF92FF926B017C010E94C3
:100D700088064B015C01C114D104E104F104B9F00F
:100D80000E948806681979098A099B09683E7340A0
:100D90008105910580F321E0C21AD108E108F1082C
:100DA00088EE880E83E0981EA11CB11CE4CFFF9052
:100DB000EF90DF90CF90BF90AF909F908F9008956D
:100DC0008F929F92AF92BF92CF92DF92EF92FF925B
:100DD0000F931F93CF93DF936C017B018A01809166
:100DE0003201882309F45CC080919001882309F4C2
:100DF00057C08091820180FF05C08091E000826031
:100E00008093E000E801B12C8AEFA82E93E0892EB0
:100E10002AE3922E209711F4BB20D9F10E94F0040E
:100E200081110AC0AA94AA20D9F161E070E080E0A3
:100E300090E00E94AD06EECF8C171D0611F00CF06D
:100E40008C2F9FB7F8948092E9002091E80025FD4F
:100E500002C09FBFDFCF282F30E0C21BD30BF701AA
:100E6000815020F041914093F100FACFE20EF31E41
:100E7000BB2021F09092E800B12CEBCF8091E800EC
:100E800085FDE7CF9092E800BB24B394209709F347
:100E9000F3CF5D9884E680938101101611063CF033
:100EA00081E090E0F6019383828310E000E0C801C6
:100EB000DF91CF911F910F91FF90EF90DF90CF9036
:100EC000BF90AF909F908F9008956F927F928F9276
:100ED0009F92AF92BF92CF92DF92EF92FF920F93C9
:100EE0001F93CF93DF934C017B01C22F102F98E00B
:100EF000A92EB12C642E669466946694712CCA0156
:100F000087709927892B79F5D40117962D913C91FB
:100F1000C7019927B9010E94F320269DF001279D62
:100F2000F00D369DF00D11248E0F9F1FD4011596E4
:100F3000ED91FC91E80FF91F2081111112C0C095AD
:100F4000C223C083DF91CF911F910F91FF90EF904B
:100F5000DF90CF90BF90AF909F908F907F906F90D9
:100F60000895C22BEECFD0E04770C42ED12C83E081
:100F7000660C771C8A95E1F79E0101C0220F4A9505
:100F8000EAF7012FA301B701C4010E946507A3017D
:100F9000485F5F4FC5018C199D0902C0D595C79563
:100FA0008A95E2F7A7CF5F926F927F928F929F927E
:100FB000AF92BF92CF92DF92EF92FF920F931F9367
:100FC000CF93DF93EC016A30F1F48D859E859C8789
:100FD0008B878C892F853889820F932F911D988B51
:100FE0008F8781E090E0DF91CF911F910F91FF906B
:100FF000EF90DF90CF90BF90AF909F908F907F90B9
:101000006F905F900895AB84BC84693031F429E01F
:10101000A20EB11CBC86AB86E4CF3DEFA3163FEF1A
:10102000B3060CF45DC08F819885A816B9060CF044
:1010300057C0CF84D8888DEFC8168FEFD8060CF430
:101040004FC089859A85C816D9060CF049C0603210
:1010500008F46FE780EE860F9FE9960F9A3118F437
:101060009FEFC91AD90A8C3011F08B3119F42FEF88
:10107000C21AD20A869534E0839FC00111249C01D4
:1010800026533A4F7901912C812C162F1170F701BC
:10109000E80DF91D549011112DC0352D3F70532EC0
:1010A0003501680C791C8C81882361F001E0898905
:1010B0009A89892B09F000E02FE0A601B301CE0147
:1010C0000E9465070989252DA601B301CE010E9462
:1010D00065078FEF881A980A94E089169104B9F68B
:1010E0008B8990E004962B853C85820F931F9C870B
:1010F0008B8777CF52948FE05822D2CF0F931F93D4
:10110000CF93DF938C01D0E0C0E0F801EC0FFD1F1E
:101110006491662341F087E296E00E94D307892B11
:1011200011F02196F2CFCE01DF91CF911F910F9157
:10113000089520915F01E0915D01F0915E01CF0182
:10114000029690935E0180935D01222319F08591B0
:1011500094910895808191810895CF92DF92EF92CA
:10116000FF92CF93DF930E949908811520E89207A0
:1011700091F4809171008D7F8093710010929100A5
:101180004698479810925C01DF91CF91FF90EF90C5
:10119000DF90CF90089521E020935C01813020E81A
:1011A000920751F480915A0190915B0190935E01F6
:1011B00080935D010E94990897FD05C02091590117
:1011C000222309F454C020915801211150C021E07C
:1011D00020936001EC01DF77209709F04BC081E09C
:1011E0008093610146983FE9C32E3FE0D32EE12C66
:1011F000F12CCAEFD0E0E091EF01F091F0010995F8
:10120000811103C081E08093610180916001882396
:1012100029F080916101882309F43FC047980E941A
:1012200099080097F1F19C01DE010E94C71DDC01C5
:10123000CB0129E0B595A795979587952A95D1F784
:10124000109290002AE020939100D0929900C092D1
:1012500098008093620190936301A0936401B0931E
:101260006501809171008260809371008DCF109232
:101270006001B0CF9E0150E040E060E472E48FE096
:1012800090E00E94861D69017A0181E0C81AD108A8
:10129000E108F10810926101AECF4699BFCF479A9D
:1012A000BECF8FEF9FEFDC01CBCF9C01E1E7F0E0F9
:1012B00090819D7F908381E080935F0130935E01F8
:1012C00020935D0130935B0120935A010C94AD088B
:1012D0004F925F926F927F928F929F92AF92BF9246
:1012E000CF92DF92EF92FF920F931F93CF93DF93F2
:1012F0004C015901FC2DC02FD0E0CE01880D991D65
:10130000181619060CF06CC020E8821691040CF037
:1013100067C09B012E0D311D121613060CF060C024
:10132000603471050CF05CC04115510509F458C0DA
:10133000E62FE770FE2EDB0177FD179633E0B595BB
:10134000A7953A95E1F73A2F77FF04C0FF2011F0F7
:101350003FEF3A0F662777276819790997FC02C093
:1013600070E060E0803891050CF44BC090E898196B
:10137000961BA32F032E000CBB0B1A2F10953F3F7B
:101380000CF010E021E08E2D877009F420E0E69447
:10139000E694E694E20EAE0DB11D19971CF028E01C
:1013A000E22EE31AE11A310F20E83203D0011124B2
:1013B000A80DB91DA60FB71F019F600D711D112447
:1013C000460F571F0F2D0F2C000C110BF33009F493
:1013D0001CC1C8F4F13009F4D0C0F23009F47CC06B
:1013E000DF91CF911F910F91FF90EF90DF90CF9001
:1013F000BF90AF909F908F907F906F905F904F9035
:101400000895902FB5CFFA3FB1F1232F2E0DFB3F5A
:1014100039F7321729F3BD01695D7D4FD12CC12CFD
:10142000C91608F0A4C0FA01EC0DFD1DE491F0E02E
:101430004F01002E02C0880C991C0A94E2F737FD78
:1014400006C0FB018081E82CE0948E218083FF2080
:1014500061F0373054F45B01F0E8AF0EB11CE92CB9
:10146000E094F50180818E218083FFEFCF1ADF0A9F
:101470006F5F7F4FD5CF232F2E0D321709F4B0CFDA
:10148000BD01695D7D4FD12CC12CC91608F069C022
:10149000FA01EC0DFD1DE491F0E04F01002E02C0B9
:1014A000880C991C0A94E2F737FD04C0FB01808187
:1014B00088298083FF2051F0373044F45B01F0E845
:1014C000AF0EB11CF501808189298083FFEFCF1A0F
:1014D000DF0A6F5F7F4FD9CF6FEF70E00F2C02C034
:1014E000660F771F0A94E2F760957095772E232F89
:1014F0002E0D321709F474CFFD01E95DFD4F6F0128
:10150000B12CA12CA91638F5FA01EA0DFB1DE491C6
:10151000F0E02F01002E02C0440C551C0A94E2F7A3
:1015200037FD05C0F6018081862384298083FF2052
:1015300059F037304CF44601F0E88F0E911CF4015D
:101540008081872185298083FFEFAF1ABF0A8FEF43
:10155000C81AD80AD7CF3F5F4C0F5D1FA058BF4FA6
:10156000C8CF3F5F4C0F5D1FA058BF4F86CF3F5F76
:101570004C0F5D1FA058BF4F4CCF6A0D7B1D232F12
:101580002E0D321709F42CCFFD01E95DFD4F6F01DF
:10159000B12CA12CA91688F5FB01EA0DFB1D849046
:1015A000912C002E02C0880C991C0A94E2F78094BA
:1015B0009094FA01EA0DFB1D6490712C002E02C07C
:1015C000660C771C0A94E2F737FD05C0F6018081AE
:1015D000882186298083FF2049F037303CF4F601CA
:1015E000E058FF4F8081892187298083FFEFAF1A60
:1015F000BF0A8FEFC81AD80ACDCF3F5F4C0F5D1FCF
:101600006C0F7D1FA058BF4FBCCFC92ED12CFA0143
:10161000E60FF71FA95DBD4F00E810E00C191D098A
:10162000CC19DD09BE01660F771F41E050E06A0169
:101630000F2C01C0CC0C0A94EAF7592F2E2D792ECD
:10164000CF93DF93ED01EF96EF9622968590A590CC
:10165000FF2059F08C9C4001AC9C500137302CF499
:10166000E880B094EB20E928E99233233AF0EC903B
:10167000A094EA20E828ED920C943F0B11965A951D
:1016800029F72A9551F0572D33951124E60FF11DB6
:10169000A00FB11DC00FD11DD9CFDF91CF91112463
:1016A0009FCEBC0190E080E00C94AD068FB1809598
:1016B000807F669B88601C9B84600895CF93C82FB1
:1016C0000E94560B982F9C2381E09C1380E0CF91C1
:1016D000089580389105B8F460347105A0F420E1D4
:1016E00091E061FD94E060FD990F62FD9295687F45
:1016F000269FD0011124A80FA95DBD4F8C9140FFFA
:1017000003C0892B8C93089590958923FBCF8F92EA
:101710009F92AF92BF92CF92DF92EF92FF920F9380
:101720001F93CF93DF936D3089F0C0907201D090FA
:1017300073016A30D1F4109271011092700188E047
:10174000C80ED11CD0927301C092720181E090E06A
:10175000DF91CF911F910F91FF90EF90DF90CF908D
:10176000BF90AF909F908F9008950091700110915D
:101770007101E5E06E9FE0011124C653DF4F48017F
:10178000F12CF5E0E12CFF1629F0CE010196FE01C7
:10179000E490EC01B12CA12C4E2D4170B6016A0DE4
:1017A0007B1DC4010E94690BE694FFEFAF1ABF0ACC
:1017B00088E0A816B10481F7F394EFEF8E1A9E0A21
:1017C000F6E0FF12DECF0A5F1F4F10937101009306
:1017D0007001BCCFDF92EF92FF920F931F93CF93D4
:1017E000DF937C01D22E8B01040F111DEB0177FFDB
:1017F00002C0D0E0C0E0C8010134110514F080E45B
:1018000090E0C817D9073CF44D2DBE01C7010E94D6
:10181000690B2196F0CFDF91CF911F910F91FF902F
:10182000EF90DF9008952F923F924F925F926F92C8
:101830007F928F929F92AF92BF92CF92DF92EF9260
:10184000FF920F931F93CF93DF9300D000D0CDB7BB
:10185000DEB76C015B01322E842F90E09C838B837A
:10186000440F4F5F681B790BC6010E94EA0B01E031
:1018700010E0EB81FC810E1B1F0B4F0191948194B2
:101880009108880C991CF12CE12C66246394712C2E
:101890008B819C81E816F9060CF044C017FD08C046
:1018A00001979C838B8392E0890E911C080D191D72
:1018B000EFEFEE1AFE0AF2E06F0E711C060D171D17
:1018C0002B80220C2394232D422D25018B819C817A
:1018D000481A590AB201C7018C0D9D1D0E94EA0BDE
:1018E000F501EE19FF09FA83E983232D462DBF0187
:1018F0008B819C818C0D9D1D0E94EA0B232D422D16
:10190000B201C6018E199F090E94EA0B232D462DB4
:1019100069817A81C601EB81FC818E1B9F0B0E943D
:10192000EA0BB6CF0F900F900F900F90DF91CF91F1
:101930001F910F91FF90EF90DF90CF90BF90AF90ED
:101940009F908F907F906F905F904F903F902F90DF
:1019500008958091250190912601019741F481E03D
:101960002091110130911201121613060CF080E043
:1019700008958F929F92AF92BF92CF92DF92EF9293
:10198000FF92CF93DF93E9010197C9F561307105AB
:10199000F9F461E070E090E080E00E94B90C9B01F6
:1019A000AC0160E070E080E89FE30E94D61D20E07B
:1019B00030E040E05FE30E944320DF91CF91FF9051
:1019C000EF90DF90CF90BF90AF909F908F90089551
:1019D0006230710509F04EC062E070E090E080E096
:1019E0000E94B90C20E030E040E05FE30E94432019
:1019F00020E030E040E05FE30E94D71DDECFBA0177
:101A0000550F880B990B0E940E1F6B017C01BE01C4
:101A1000DD0F880B990B0E940E1F9B01AC01C701C3
:101A2000B6010E94641E20E030E040E05FE30E94C7
:101A3000D61D6B017C01AC019B010E94D71D4B019F
:101A40005C0120E030E0A901C701B6010E943E2000
:101A500018164CF4A501940160E070E080E89FE363
:101A60000E94D61DAACF20E030E040E85FE3C50128
:101A7000B401C2CF60E070E080E09FE39ECFE1E080
:101A8000F1E01186108615861486E1EFF1E0178AE1
:101A9000168A118E108E13A212A216A217A210A6D9
:101AA00011A612A613A614A615A680E090E0A0E841
:101AB000BFE382AB93ABA4ABB5AB81E080A311A233
:101AC000E3E1F1E01386128681E090E0938B828B54
:101AD00008950E943F0DE1EFF1E015A214A217A6B0
:101AE00016A611AA10AA08959B01AC0160E070E04F
:101AF00080E89FE30E94D61D2091170230911802C2
:101B00004091190250911A020E94432060931702DB
:101B1000709318028093190290931A022091130176
:101B20003091140140911501509116010E945A1EE6
:101B3000181634F00E94690D1092200110921F01B6
:101B40000895089590E080E008958F929F92AF925B
:101B5000BF920F931F93CF93DF93CDB7DEB7A197BB
:101B60000FB6F894DEBF0FBECDBF19A2423008F405
:101B70004AE08E010F5D1F4F842E912CB12CA12CB9
:101B8000A50194010E94A51DE62FB901CA01EA3002
:101B900044F5E05DD801EE938D01232B242B252BFA
:101BA00079F790E080E0109769F0FD010190002046
:101BB000E9F73197AF014A1B5B0BBD0187E296E065
:101BC0000E945B06A1960FB6F894DEBF0FBECDBF94
:101BD000DF91CF911F910F91BF90AF909F908F9009
:101BE0000895E95CD7CF2F923F924F925F926F9208
:101BF0007F928F929F92AF92BF92CF92DF92EF929D
:101C0000FF920F931F93CF93DF93CDB7DEB7289743
:101C10000FB6F894DEBF0FBECDBF00911502109134
:101C20001602B801012E000C880B990B0E940E1FA2
:101C30002B013C0120E030E044EB53E40E94641EA1
:101C400020E030E048EC51E40E9443209B01AC01CD
:101C50000E94D71D2BED3FE049E450E40E94432051
:101C600020E030E040E852E40E94D71D0E94D61EDA
:101C70006B015B018090FD019090FE019401295160
:101C8000310938872F8380912501909126019E8309
:101C90008D830397029728F00E94A90C882309F4EA
:101CA00004C125E33AEF4EE85CE3C301B2010E94B0
:101CB00043200E94B0204B015C01B601DD0C880B73
:101CC000990B0E940E1F6B017C0120E030E048EC74
:101CD00051E4C501B4010E9443209B01AC01C7013E
:101CE000B6010E94D71D20901F023090200222E0F2
:101CF0002216310409F4E7C020E030E048EC51E45A
:101D00000E94D71D0E94D61E2B012F813885B90154
:101D1000330F880B990B0E940E1F4B015C016AE583
:101D200070E0601B710B072E000C880B990B0E9452
:101D30000E1F25E33AEF4EE85CE30E9443200E9429
:101D40005F1E6B017C0181E090E032E023163104DC
:101D500011F48FEF9FEF29E1289FB001299F700DAB
:101D60001124072E000C880B990B0E940E1FA7014F
:101D700096010E944320A50194010E94D71D20E0F6
:101D800030E048EC51E40E94D71D20E030E040E80C
:101D90005FE30E94D71D0E94D61E69837A838B83DE
:101DA0009C838D819E81049751F45092020240924F
:101DB000010229813A8130930402209303020E9498
:101DC000A90C882309F484C060911101709112015B
:101DD000072E000C880B990B0E940E1F6B017C01D3
:101DE00060910F0170911001072E000C880B990B68
:101DF0000E940E1F9B01AC01C701B6010E94641E28
:101E00002AED3FE049EC5FE30E9443200E94B020AE
:101E10002B013C0160910102709102026054710932
:101E2000072E000C880B990B0E940E1FA301920134
:101E30000E94432020E030E040E852E40E94D71D99
:101E40000E94D61E6B0169817A818F819885681BFB
:101E5000790B072E000C880B990B0E940E1FA30113
:101E600092010E944320A50194010E94D71D0E9467
:101E7000D61E7B01C701B60128960FB6F894DEBFC7
:101E80000FBECDBFDF91CF911F910F91FF90EF90CB
:101E9000DF90CF90BF90AF909F908F907F906F908A
:101EA0005F904F903F902F90089580917501909191
:101EB00076018230910581F49FEFA91AB90A650174
:101EC000EF80F884D7CF20E030E048EC51EC18CF19
:101ED0006201E980FA80CECF8130910521F421E0C2
:101EE000A21AB108ECCF8430910529F4C4014897B7
:101EF00098878F83E4CF039711F794012A51310912
:101F000038872F83DCCF2F923F924F925F926F9250
:101F10007F928F929F92AF92BF92CF92DF92EF9279
:101F2000FF920F931F93CF93DF93CDB7DEB76397E5
:101F30000FB6F894DEBF0FBECDBF2D83865A9F4FDC
:101F40009B8B8A8B1C01260E371ECA01550FAA0BCC
:101F5000BB0B8E839F83A887B9879801110F440B11
:101F6000550B2A873B874C875D87C701FF0CAA0B5F
:101F7000BB0B8E879F87A88BB98BAA89BB892A1632
:101F80003B060CF475C0BD01BB0F880B990B0E947A
:101F90000E1F25E33AEF4EE85CE30E9443206B01FD
:101FA0007C016E817F81888599850E940E1F6983DF
:101FB0007A838B839C83C701B6010E945F1E2B012D
:101FC0003C016A857B858C859D850E940E1F4B0197
:101FD0005C01A301920169817A818B819C810E94BD
:101FE00043209B01AC01C501B4010E94D71D0E9492
:101FF000D61E2B018B01C701B6010E94B0204B01F8
:102000005C016E857F85888999890E940E1F6B010E
:102010007C01A501940169817A818B819C810E9458
:1020200043209B01AC01C701B6010E94D71D0E944D
:10203000D61E9B014A895B894115510519F0483626
:10204000514071F48201015011094D81B901C8015B
:102050000E94690B8A899B8901969B8B8A8B8DCF05
:102060004A895B894A35510581F721503109EDCF05
:1020700063960FB6F894DEBF0FBECDBFDF91CF9150
:102080001F910F91FF90EF90DF90CF90BF90AF9096
:102090009F908F907F906F905F904F903F902F9088
:1020A00008951F920F920FB60F9211248F939F9352
:1020B0008091E1009091E100937F9093E10083FF94
:1020C0000FC01092E90091E09093EB001092EC00A9
:1020D00092E39093ED001092900198E09093F000BD
:1020E00082FF22C093E09093E9009091F20099233F
:1020F00019F09AE39093E80090918101992341F0BF
:1021000090918101915090938101911101C05D9A4C
:1021100090918F01992341F090918F01915090936C
:102120008F01911101C0289A84FF18C08091E200AC
:102130008E7E81608093E2008091E1008F7E8093AB
:10214000E100809182018E7E8061809382019F9167
:102150008F910F900FBE0F901F90189580FFF7CFB3
:102160008091E2008E7E80618093E2008091E100A8
:102170008E7E8093E100809182018E7E8160E5CF2A
:102180001F920F920FB60F921124CF92DF92EF920F
:10219000FF920F931F932F933F934F935F936F93F0
:1021A0007F938F939F93AF93BF93EF93FF93CF93BF
:1021B000DF93CDB7DEB76C97DEBFCDBF1092E900DD
:1021C0008091E80083FF25C068E0CE0145960E941B
:1021D0004E0682EF8093E8008D8987FF39C0909189
:1021E000E80090FFFCCF982F907609F034C19E89CB
:1021F0004F89588D2F89F88C911131C0803861F545
:10220000809180018093F1001092F1008EEF809315
:10221000E8006C960FB6F894DEBF0FBECDBFDF911D
:10222000CF91FF91EF91BF91AF919F918F917F914E
:102230006F915F914F913F912F911F910F91FF905F
:10224000EF90DF90CF900F900FBE0F901F901895DA
:102250009EEF9093E800C7CF1092F100D5CF913058
:1022600059F48111D3CF4130510581F6809180011D
:102270008D7F80938001CACF933049F48111C6CFFE
:102280004130510519F6809180018260F2CF95307E
:1022900041F48091E80080FFFCCF20682093E300A8
:1022A000B5CF963009F0A9C00B8D1C8D22E010929D
:1022B000E90010927E0110927D01F2122EC0109260
:1022C0007C0110927B010E941D061F8299E0998378
:1022D000FA8291E09E8390EA98879AEF99872091FD
:1022E0007D0130917E01275F3F4F3C832B838D839F
:1022F0001092E90010927E0110927D0110937C01F2
:1023000000937B0149E050E0BE016F5F7F4F80E0AA
:102310000E94F7050E941D0679CF10937C0100935F
:102320007B010E940105DC0112960D911C910115A3
:10233000110509F451C1D801ED91FC910480F5819A
:10234000E02DBE016B5E7F4FC8010995009709F033
:102350003EC1F80100851185EACFF3E0FF120EC0FF
:102360008F89882309F440C0823061F440E867E037
:102370008EEE98E00E94C405811148CF81E28093DF
:10238000EB0047CF813029F440E86BE082EE98E023
:10239000F1CF833099F70E940105DC011296ED9090
:1023A000FC908E010F5F1F4F6801E114F10479F07A
:1023B000D701ED91FC910680F781E02DB801C701AE
:1023C0000995080F111DF701E084F184EECFD801C3
:1023D0001C92F60101900020E9F73197BF016C19BA
:1023E0007D0940E0C601C6CF6CEC78E0FB0144916A
:1023F00050E080E80E94F70509CF973009F4BECF7E
:10240000983021F481E08093F10000CF993009F0F9
:10241000FDCE837009F0B2CFE4E3F1E081E031E07A
:1024200096E32191222371F08093E9003093EB0031
:10243000DF0111972C912093EC009093ED008F5FBA
:10244000873079F78EE78093EA001092EA008F894F
:1024500080939001DBCE8B8D9C8D1092E9001092C1
:102460007E0110927D0190937C0180937B01898D88
:10247000811192C08E899D89913A49F4813209F087
:102480007DCF47E050E06BE271E080E0B3CF913266
:1024900009F074CF833269F48F89988DB0E0A0E0A1
:1024A0008093270190932801A0932901B0932A01DA
:1024B000ADCE803269F48091E80082FFFCCF67E006
:1024C0008BE291E00E944E068BEF8093E8009ECE57
:1024D000823209F09BCE8F8980933201EEEFFFE7C5
:1024E000859194918B3F9C4D51F1E0E0F8E0809113
:1024F0002B0190912C01A0912D01B0912E01803BD8
:102500009440A105B105F1F48091320180FD1AC01B
:10251000EE3F8AE0F80789F587E797E791838083A4
:102520008091600080937F0188E19BE00FB6F89472
:10253000A895809360000FBE9093600067CEEEEF89
:10254000FAE0D5CF808191818737974709F05ECE39
:10255000A8958091600088618093600080917F01E0
:1025600080936000EE3F2AE0F20789F08091FE0A36
:102570009091FF0A9183808349CE80819181873732
:10258000980751F29093FF0A8093FE0AC5CF1092EC
:10259000FF0A1092FE0A3ACE0E940105DC01129653
:1025A0000D911C910115110509F4E8CED801ED91AA
:1025B000FC910190F081E02DBE016B5E7F4FC80160
:1025C0000995811123CEF80100851185EBCF1816EE
:1025D00019060CF41BCED2CEF1E0FF12BECE60ED98
:1025E00078E004CF1F920F920FB60F9211242F9311
:1025F0003F938F939F93AF93BF9380917701909177
:102600007801A0917901B0917A013091660123E0BF
:10261000230F2D3758F50196A11DB11D209366019A
:102620008093770190937801A0937901B0937A0118
:102630008091670190916801A0916901B0916A0150
:102640000196A11DB11D8093670190936801A0932D
:102650006901B0936A01BF91AF919F918F913F91B2
:102660002F910F900FBE0F901F90189526E8230F03
:102670000296A11DB11DD2CF1F920F920FB60F92DD
:1026800011242F933F934F935F936F937F938F9377
:102690009F93AF93BF93EF93FF93809162019091CB
:1026A0006301A0916401B0916501892B8A2B8B2B6A
:1026B00009F440C08091610181110BC088B190E4A0
:1026C000892788B980916001882319F088B18058E2
:1026D00088B98091620190916301A0916401B091E9
:1026E0006501181619061A061B069CF480916201F2
:1026F00090916301A0916401B09165010197A109D6
:10270000B1098093620190936301A0936401B09337
:102710006501FF91EF91BF91AF919F918F917F9153
:102720006F915F914F913F912F910F900FBE0F903E
:102730001F9018950E94AD08ECCFE1E9F1E01382FB
:10274000128288EE93E0A0E0B0E084839583A683B4
:10275000B7838EE391E0918380838FEF9FEF95871E
:10276000848786EA94E09093F0018093EF0180E003
:1027700090E89093EE018093ED0146983E9A479839
:102780003F9AE7E2F6E01382128280E591E09183BE
:10279000808387E292E09683858320E830E030876B
:1027A000278380E490E09287818785E0848B81E0B5
:1027B000838B16861586108A17861486138641E049
:1027C00050E0528B418B1482E1EFF1E04AE550E09A
:1027D000518340834DE150E05383428343E150E015
:1027E0005583448347E150E0578346834DEE5FEFC6
:1027F00051874087338722872AE330E03587248753
:102800002CE330E0378726872CED35E0358B248BA1
:10281000178A168A118E108E23EE3FEF338F228F88
:1028200043E050E0558F448F378F268F80A311A24D
:1028300013A212A215A214A216A217A210A611A6E4
:1028400012A613A614A615A617A616A611AA10AAB4
:1028500012AA13AA14AA15AA0895CF93DF93CDB78D
:10286000DEB762970FB6F894DEBF0FBECDBF789487
:1028700084B5826084BD84B5816084BD85B5826085
:1028800085BD85B5816085BD80916E008160809336
:102890006E0010928100809181008260809381009F
:1028A00080918100816080938100809180008160AF
:1028B000809380008091910082608093910080914C
:1028C000910081608093910080919000816080935D
:1028D00090008091C10084608093C1008091C1000C
:1028E00082608093C1008091C10081608093C100AB
:1028F0008091C30081608093C3008091C00082609A
:102900008093C0008091C20081608093C20080915A
:102910007A00846080937A0080917A00826080934C
:102920007A0080917A00816080937A0080917A00A9
:10293000806880937A00109290011092800110922A
:1029400082018091D70081608093D70080EA8093D4
:10295000D80089B5806189BD89B5826089BD09B417
:1029600000FEFDCF61E070E080E090E00E94AD06E7
:102970008091D8008F7C80618093D8008091E000A6
:10298000807F8093E0008091E1008E7E8093E10063
:102990008DE08093E200559A209A81EC80937C0030
:1029A00085B1806F85B984B1877E84B984B1876E23
:1029B00084B95E9A5F988AB1806D8AB9769A6E986A
:1029C00081B3806F81BB899880B38D7080BB80E5B7
:1029D0008CBD81E08DBD85E090E00E94510B5F9A37
:1029E00085E090E00E94510B5E985C98EAE8F6E082
:1029F00087E996E024912EBD00000DB407FEFDCFBF
:102A000031968E179F07B1F75C9A81E88093640036
:102A1000809165008160809365000E94A90480E830
:102A20000E945E0B8823A9F05C9885EA8EBD0000A9
:102A30000DB407FEFDCF5C9A2E982F982D988091AB
:102A4000640080628093640081E083BF889513BE38
:102A5000FCCF84E00E945E0B882309F446C02D98C9
:102A600084E80E945E0B8823D9F02D9A88EC90E0D0
:102A70000E94510B2F9882E090E00E94701D8F3FC2
:102A800029F06FEF82E090E00E94781D84EF91E0E2
:102A90000E94510B2F9A84E80E945E0B8111FBCF9C
:102AA00084E10E945E0B8823D9F02D9A88EC90E097
:102AB0000E94510B2E9882E090E00E94701D8823A6
:102AC00029F060E082E090E00E94781D84EF91E0C0
:102AD0000E94510B2E9A84E10E945E0B8111FBCF64
:102AE00088EC90E00E94510BB4CF2D9A82E090E0E8
:102AF0000E94701D8823C9F13E9A3F9A81E080931D
:102B00006B0182E390E00E94510B0E94560B8111F1
:102B1000F8CF6091010170910201772788EE93E070
:102B20000E94F320609300010E94690D109226011B
:102B30001092250170E8272E312C2FB7F894809140
:102B4000770190917801A0917901B0917A012FBF1E
:102B500020916E01222371F010926E0180E090E0CE
:102B6000892B59F30E940000E8CF10926B013E9828
:102B70003F98C7CF20916F01382F321B232F309100
:102B80000001231740F42F5F231740F781E083BF34
:102B9000889513BEE3CF21E020936E0180936F01EF
:102BA00080916C0190916D01019690936D018093DD
:102BB0006C01C0902102D090220220910701309137
:102BC00008014091090150910A01B60190E080E0AE
:102BD0000E94B90C2AED3FE049EC5FE30E944320DC
:102BE0000E94B0204B015C0180921B0290921C025B
:102BF000A0921D02B0921E020E94A90C40911101E8
:102C0000509112015A8349830091250110912601A8
:102C1000882309F409C1BA01550F880B990B0E944A
:102C20000E1F4B015C0160910F0170911001072E86
:102C3000000C880B990B0E940E1F9B01AC01C50173
:102C4000B4010E94641E20E030E044E353E40E949B
:102C50004320CA94CD2809F0E2C020E030E040E8EB
:102C60005FEB0E9443200E94D61E70931602609371
:102C7000150220911D0130911E0180911F0190913C
:102C800020018217930708F042C10196909320011A
:102C900080931F01C0900D02D0900E02E0900D01B4
:102CA000F0900E018091230190912401892B09F469
:102CB00045C0A0900B02B0900C02B7010F2C000C85
:102CC000880B990B0E940E1F2B013C0160910B0198
:102CD00070910C01072E000C880B990B0E940E1F9F
:102CE0009B01AC01C301B2010E94641E2AED3FE0CA
:102CF00049EC5FE30E9443200E94B0202B013C017D
:102D0000B6016A197B09072E000C880B990B0E94EB
:102D10000E1FA30192010E9443202B013C01B5012B
:102D2000BB0C880B990B0E940E1F9B01AC01C301C9
:102D3000B2010E94D71D0E94D61E6B01D0921002D4
:102D4000C0920F0280911102882309F4E6C080919D
:102D50000B0190910C01E816F9063CF4EFEFEE1A26
:102D6000FE0AF0920E01E0920D018091120288237A
:102D700009F4DBC080910F019091100129813A8103
:102D80002817390734F42F5F3F4F309312012093F7
:102D900011010230110520F00430110509F0E6C0E0
:102DA0002091090230910A02809105029091060259
:102DB000281739070CF0DAC08091070290910802B9
:102DC0002FB7892B09F0BEC0F894809177019091BC
:102DD0007801A0917901B0917A012FBF90930802F8
:102DE000809307022091090230910A028091050226
:102DF00090910602281739070CF45DC20E94560B09
:102E00008093740180E20E945E0B882309F41AC249
:102E100081E090E0909376018093750136C220E0C6
:102E200030E040E85FE31DCFC8010397029708F048
:102E300044C0A501940160E070E080E89FE30E9437
:102E4000D61D4B015C0180921B0290921C02A09245
:102E50001D02B0921E02E0901302F0901402B7011E
:102E60000F2C000C880B990B0E940E1F2B013C01AC
:102E7000F7FE03C0F194E194F10864EB70E06E1981
:102E80007F09072E000C880B990B0E940E1FA501CD
:102E900094010E94432020E030E040E85FEBCA94B8
:102EA000CD2821F020E030E040E85FE30E9443209D
:102EB000A30192010E94D71DD6CE20911702309116
:102EC00018024091190250911A02C501B4010E94E2
:102ED000432020E030E04AEA52E40E94432020E010
:102EE00030E040E85FEBCA94CD2821F020E030E0EC
:102EF00040E85FE30E9443200E94D61E70931602B2
:102F0000609315027093140260931302B2CE2817D7
:102F1000390708F0BFCE0197B9CE1E141F040CF07C
:102F200024CFF1E0EF1AF1081CCF49815A81141621
:102F300015060CF02ECF41505109509312014093C9
:102F4000110127CFF8948091770190917801A09199
:102F50007901B0917A012FBF2091070230910802C8
:102F6000821B930B90930A028093090280912501A2
:102F700090912601892B69F42091090230910A026F
:102F800080910502909106022817390714F00E94DB
:102F9000690D80912501909126019A838983823061
:102FA000910508F41FCF049709F41CCF0E94A90CC7
:102FB000811118CF809115029091160297FF03C0DE
:102FC0009195819591098635910554F1A981BA8130
:102FD0001297C1F46091070170910801072E000C4F
:102FE000880B990B0E940E1F20E030E040E05FE369
:102FF0000E9443200E94431E0E94D61E70930A0125
:1030000060930901E3E0F0E0F0932601E0932501ED
:1030100080912102909122029093200280931F02BE
:103020008091250190912601039791F580910901E6
:1030300090910A01209107013091080182179307AE
:1030400034F4019690930A0180930901CBCE80E875
:1030500098E00E94550924E030E030932601209347
:1030600025012FB7F8948091770190917801A09174
:103070007901B0917A012FBF9093080280930702E3
:1030800010920A021092090281E080931202AACEE5
:1030900020E030E0A9016091170270911802809140
:1030A000190290911A020E943E2018160CF0BDC021
:1030B0008091090190910A01019690930A018093F1
:1030C00009016091030170910401809105019091C3
:1030D00006010E94740D4091090150910A018091EE
:1030E0000701909108019C0197FF02C02F5F3F4F9D
:1030F000359527954217530771F42091210230919D
:1031000022022130310509F07BC0A2E0B0E0B0938B
:103110002002A0931F024817590709F063CE1092AE
:103120000A0110920901C0901702D0901802E09095
:103130001902F0901A02209113013091140140916C
:10314000150150911601C701B6010E943E201816C4
:103150000CF048CE209117013091180140911901CF
:1031600050911A01C701B6010E943E2087FD3AC066
:1031700082E798E00E94550960911B0170911C0143
:10318000072E000C880B990B0E940E1F209117022E
:10319000309118024091190250911A020E94432066
:1031A0006B017C0160911D0170911E0190E080E037
:1031B0000E940C1F9B01AC01C701B6010E94D71DE4
:1031C0000E94DD1E70931E0160931D01209121015C
:1031D000309122012617370708F49B013093220112
:1031E000209321018091210290912202813091054A
:1031F00091F4E2E0F0E0F0932202E0932102F2CDBC
:103200002230310509F087CF21E030E030932002F1
:1032100020931F0280CF029709F0E4CD81E090E077
:103220009093220280932102DDCD1092220210920F
:1032300021021092200210921F0210921602109288
:103240001502D0CD88E00E945E0B8111E1CD80E4B3
:103250000E945E0B811113C084E00E945E0B8111FD
:103260000EC080E80E945E0B8111AFC080E10E9419
:103270005E0B882309F4B0C084E090E0CBCD22E05F
:1032800030E0309376012093750180912501909173
:103290002601A0917501B0917601BA83A9830097A8
:1032A00009F09FC0AB2B09F4A5C00E94690D1092D4
:1032B000200110921F018091250190912601892BF8
:1032C00009F040C10E94B90410927301109272017A
:1032D00010927101109270012FE230E030933506A8
:1032E0002093340630933306209332068EE090E02C
:1032F000909337068093360680E698E00E947E0819
:1033000085E290E0909335068093340690933306DF
:103310008093320683E190E09093370680933606DF
:1033200084E598E00E947E084FE250E05093350615
:103330004093340650933306409332068DE190E07B
:1033400090933706809336068CE498E00E947E08BE
:103350008FE290E090933506809334069093330685
:103360008093320682E290E090933706809336068F
:1033700084E498E00E947E0887E290E0909335060E
:1033800080933406909333068093320690933706E9
:103390008093360689E398E00E947E0886E390E0F9
:1033A00090933506809334069093330680933206CB
:1033B00081E390E0909337068093360684E398E0AB
:1033C0000E947E080E94A904C9CB43E050E05093BC
:1033D00076014093750159CF1092760110927501D4
:1033E00054CF049739F4E981FA81EF2B19F00E9448
:1033F0003F0D5DCFC0901301D0901401E0901501F6
:10340000F090160189819A8101970297B8F5809012
:10341000170290901802A0901902B0901A02A5010C
:103420009401C701B6010E943E2087FD4DC08091E6
:10343000230190912401019690932401809323010C
:1034400010921E0110921D0122E030E030932601FF
:1034500020932501109211028AE999E9A9E1BEE3BE
:103460008093170290931802A0931902B0931A0246
:10347000A981BA81B0932202A09321022091170260
:10348000309118024091190250911A02C701B601F9
:103490000E945A1E87FF0FCF0E94560B807909F4B5
:1034A0000ACF88E698E00E94550960910301709167
:1034B000040180910501909106019B01AC010E94DD
:1034C000D71D0E94740DF7CE80911F0290912002AB
:1034D000E981FA81E817F90781F160E070E0CB013A
:1034E0006093230270932402809325029093260216
:1034F00023E333E343E95FE30E9443202B013C01D4
:1035000020E030E040E85FE30E945A1E87FF06C0DB
:10351000412C512C00E8602E0FE3702EA501940180
:10352000C301B2010E9443206093170270931802F6
:103530008093190290931A02A1CF60E070E080E8B6
:103540009FE3CECF0E94B9041092730110927201D2
:1035500010927101109270010E94F30D2B013C0139
:10356000A0911502B0911602BA8BA98B7A83698358
:103570009C838B83BD016A557109072E000C880B53
:10358000990B0E940E1F25E33AEF4EE85CE30E9480
:1035900043206B017C0121E049E1B301C2010E949B
:1035A000130CB301072C000C880B990B0E940E1F03
:1035B0006D837E838F839887C701B6010E94B020F8
:1035C0004B015C01B201052C000C880B990B0E9489
:1035D0000E1F69877A878B879C87C701B6010E9477
:1035E0005F1E6B017C0120E030E04CE252E4C5013B
:1035F000B4010E9443202D813E814F8158850E9455
:10360000D71D0E94D61E6D877E878F87988B20E0FE
:1036100030E04CE252E4C701B6010E944320298504
:103620003A854B855C850E94D71D0E94D61ECB0132
:1036300020E042E36D857E850E94130C20E030E09F
:1036400048EC51E4C501B4010E9443202D813E8124
:103650004F8158850E94D71D0E94D61E4B0120E045
:1036600030E048EC51E4C701B6010E9443202985AF
:103670003A854B855C850E94D71D0E94D61E740139
:103680008B0120E045E250E06BE270E089899A8985
:1036900045970E94830FA988BA88B5E5AB0EB11C87
:1036A000C988DA88EBE4CE0ED11C7301820121E0D7
:1036B00049E150E06AE070E0C6010E94830F28E112
:1036C00030E03E832D83EB80FC8009811A8120E06D
:1036D0004D815E816AE070E0C6010E94830FEB803D
:1036E000FC8009811A8121E04D815E8161E070E0FA
:1036F000C5010E94830F4D815E81415051095E8357
:103700004D8345315105F9F67301820121E045E110
:1037100050E06AE070E0C6010E94830FE091FD0175
:10372000F091FE01E034F105F0F4CF0187709927A4
:1037300091E001C0990F8A95EAF7892FB3E0F595DA
:10374000E795BA95E1F7F695FE2FEE27F795E79501
:10375000E95DFD4F21E8215031F09191DF01119792
:10376000982B9C93F8CF60910F027091100280917A
:103770000B0290910C0286179707D4F4EFEBF6E05A
:103780000491E0ECF6E0E4908091F1019091F20177
:103790009101281B390BC90137FD0196FAEFCF2E95
:1037A00030E020E041EC56E0959587950E9468094D
:1037B0008091210290912202A090F901B090FA012B
:1037C000019721F0A090FB01B090FC010091110144
:1037D000109112010115110509F47FC08091F501C6
:1037E0009091F601A101481B590B5A8349830E940D
:1037F000F30D2091F5013091F60137FF02C02F5FE4
:103800003F4F35952795319521953109C901860F8F
:10381000971F97FD1DC10E94F30D2091F501309176
:10382000F60137FF02C02F5F3F4F35952795319541
:1038300021953109C901860F971FA981BA81A8175F
:10384000B9070CF008C18091F5019091F601F101E2
:10385000E81BF90BFA83E983B801110F880B990B68
:103860000E940E1F6B017C0160910F01709110018D
:10387000072E000C880B990B0E940E1F9B01AC01B8
:10388000C701B6010E94641E2AED3FE049EC5FE3E8
:103890000E9443200E94B0206B017C0169817A81E3
:1038A0006A197B09072E000C880B990B0E940E1FCA
:1038B000A70196010E9443206B017C01B501BB0C5E
:1038C000880B990B0E940E1F9B01AC01C701B6012A
:1038D0000E94D71D0E94D61E5B018091F901909134
:1038E000FA018A159B053CF08091FB019091FC0147
:1038F000A816B9069CF4E7E9F6E00491E8E9F6E0D9
:10390000E4906091F7017091F8019AEFC92E30E0D0
:1039100020E049E956E0C5010E9468098091210133
:10392000909122018031F7E29F0708F0C5C0883EE0
:1039300023E0920708F0C5C08436910508F0C6C0A0
:103940000A9708F0C8C041E050E05A83498380914B
:10395000FF019091000210923506109234061092E9
:1039600033061092320690933706809336068EE225
:1039700098E00E947E088091FF01909100024AE148
:1039800050E05093350640933406509333064093ED
:103990003206909337068093360660911F0170912E
:1039A000200190E080E04AE00E94A50D2091FF01F7
:1039B0003091000209811A810C5F1F4F000F111F07
:1039C000000F111F89819A810396800F911FAFE725
:1039D000B0E0A81BB90BB0933506A0933406B093A2
:1039E0003306A0933206309337062093360689E2D9
:1039F00098E00E947E088091FF0190910002E98189
:103A0000FA81E00FF11F719791012E1B3F0B30934C
:103A10003506209334063093330620933206909374
:103A200037068093360660912101709122018091C2
:103A30001D0190911E018617970721F460911F01C7
:103A40007091200190E080E04AE00E94A50DBACC80
:103A500090E080E0F2CE0E94F30D2091F5013091CC
:103A6000F60137FF02C02F5F3F4F359527953195FF
:103A700021953109C901860F971F97FD1AC00E9431
:103A8000F30D2091F5013091F6013A83298337FF38
:103A900004C02F5F3F4F3A83298349815A8155954E
:103AA0004795519541955109460F571F5A834983B0
:103AB000D3CE1A821982D0CE85E090E09A83898392
:103AC00046CFA4E0B0E0BA83A98341CFE3E0F0E0C1
:103AD000FA83E9833CCF22E030E03A83298337CF71
:103AE000F999FECF92BD81BDF89A992780B50895C6
:103AF000262FF999FECF1FBA92BD81BD20BD0FB60A
:103B0000F894FA9AF99A0FBE01960895052E97FB3C
:103B10001EF400940E949D1D57FD07D00E94A51D14
:103B200007FC03D04EF40C949D1D509540953095A4
:103B300021953F4F4F4F5F4F089590958095709519
:103B400061957F4F8F4F9F4F0895A1E21A2EAA1BB8
:103B5000BB1BFD010DC0AA1FBB1FEE1FFF1FA2173D
:103B6000B307E407F50720F0A21BB30BE40BF50B3A
:103B7000661F771F881F991F1A9469F760957095C3
:103B8000809590959B01AC01BD01CF010895A29F46
:103B9000B001B39FC001A39F700D811D1124911D21
:103BA000B29F700D811D1124911D08955058BB279F
:103BB000AA270E94EE1D0C94D81F0E949F1F38F068
:103BC0000E94A61F20F039F49F3F19F426F40C94AC
:103BD0009C1F0EF4E095E7FB0C946D1FE92F0E94EB
:103BE000FD1F58F3BA17620773078407950720F083
:103BF00079F4A6F50C9437200EF4E0950B2EBA2F2D
:103C0000A02D0B01B90190010C01CA01A0011124E2
:103C1000FF27591B99F0593F50F4503E68F11A168E
:103C2000F040A22F232F342F4427585FF3CF46951F
:103C300037952795A795F0405395C9F77EF41F1641
:103C4000BA0B620B730B840BBAF09150A1F0FF0F0B
:103C5000BB1F661F771F881FC2F70EC0BA0F621FF7
:103C6000731F841F48F4879577956795B795F795E7
:103C70009E3F08F0B0CF9395880F08F09927EE0F7C
:103C80009795879508950E941F2090F09F3748F4DC
:103C9000911116F40C94382060E070E080E89FE306
:103CA000089526F01B16611D711D811D0C94731F54
:103CB0000C948E1F0E94491F08F481E008950E9411
:103CC000AF1FE3950C94E91F0E94781E0C94D81F37
:103CD0000E94A61F58F00E949F1F40F029F45F3FEA
:103CE00029F00C946D1F51110C9438200C949C1FDA
:103CF0000E94FD1F68F39923B1F3552391F3951B9F
:103D0000550BBB27AA2762177307840738F09F5FFC
:103D10005F4F220F331F441FAA1FA9F335D00E2E69
:103D20003AF0E0E832D091505040E695001CCAF7D6
:103D30002BD0FE2F29D0660F771F881FBB1F261799
:103D400037074807AB07B0E809F0BB0B802DBF0170
:103D5000FF2793585F4F3AF09E3F510578F00C943F
:103D60006D1F0C9438205F3FE4F3983ED4F38695A2
:103D700077956795B795F7959F5FC9F7880F911D60
:103D80009695879597F90895E1E0660F771F881F4C
:103D9000BB1F621773078407BA0720F0621B730BFF
:103DA000840BBA0BEE1F88F7E09508950E94DD1E84
:103DB0006894B1110C94382008950E94052088F071
:103DC0009F5798F0B92F9927B751B0F0E1F0660FDF
:103DD000771F881F991F1AF0BA95C9F714C0B13020
:103DE00091F00E943720B1E008950C943720672F9E
:103DF000782F8827B85F39F0B93FCCF3869577954F
:103E00006795B395D9F73EF4909580957095619537
:103E10007F4F8F4F9F4F0895E89409C097FB3EF462
:103E200090958095709561957F4F8F4F9F4F992307
:103E3000A9F0F92F96E9BB279395F6958795779585
:103E40006795B795F111F8CFFAF4BB0F11F460FF45
:103E50001BC06F5F7F4F8F4F9F4F16C0882311F09D
:103E600096E911C0772321F09EE8872F762F05C0B1
:103E7000662371F096E8862F70E060E02AF09A954C
:103E8000660F771F881FDAF7880F9695879597F941
:103E90000895990F0008550FAA0BE0E8FEEF1616DB
:103EA0001706E807F907C0F012161306E407F5072E
:103EB00098F0621B730B840B950B39F40A2661F0A2
:103EC000232B242B252B21F408950A2609F4A14045
:103ED000A6958FEF811D811D089597F99F6780E852
:103EE00070E060E00895882371F4772321F0985002
:103EF000872B762F07C0662311F499270DC09051A8
:103F0000862B70E060E02AF09A95660F771F881F75
:103F1000DAF7880F9695879597F908959F3F31F0C6
:103F2000915020F4879577956795B795880F911DE7
:103F30009695879597F908959FEF80EC0895002452
:103F40000A941616170618060906089500240A94FE
:103F5000121613061406050608950C949C1F0E9461
:103F60000520D8F3E894E0E0BB279F57F0F02AED56
:103F70003FE049EC06C0EE0FBB0F661F771F881F9E
:103F800028F0B23A62077307840728F0B25A620B2E
:103F9000730B840BE3959A9572F7803830F49A95F9
:103FA000BB0F661F771F881FD2F790480C94901F95
:103FB000092E0394000C11F4882352F0BB0F40F437
:103FC000BF2B11F460FF04C06F5F7F4F8F4F9F4F77
:103FD0000895EF93E0FF07C0A2EA2AED3FE049EC25
:103FE0005FEB0E94EE1D0E94D81F0F90039401FC0E
:103FF0009058ECEAF0E00C94B82057FD9058440F2C
:10400000551F59F05F3F71F04795880F97FB991F37
:1040100061F09F3F79F087950895121613061406F4
:10402000551FF2CF4695F1DF08C016161706180681
:10403000991FF1CF869571056105089408950E9436
:104040000520A0F0BEE7B91788F4BB279F3860F4BD
:104050001616B11D672F782F8827985FF7CF8695A2
:1040600077956795B11D93959639C8F30895E894AF
:10407000BB2766277727CB0197F908950E94491F30
:1040800008F48FEF08950E9456200C94D81F0E94C8
:104090009F1F38F00E94A61F20F0952311F00C946A
:1040A0006D1F0C949C1F11240C9438200E94FD1F3E
:1040B00070F3959FC1F3950F50E0551F629FF0017B
:1040C000729FBB27F00DB11D639FAA27F00DB11D94
:1040D000AA1F649F6627B00DA11D661F829F22271D
:1040E000B00DA11D621F739FB00DA11D621F839FA4
:1040F000A00D611D221F749F3327A00D611D231F7A
:10410000849F600D211D822F762F6A2F11249F57C7
:1041100050409AF0F1F088234AF0EE0FFF1FBB1FCA
:10412000661F771F881F91505040A9F79E3F510589
:1041300080F00C946D1F0C9438205F3FE4F3983EA0
:10414000D4F3869577956795B795F795E7959F5F33
:10415000C1F7FE2B880F911D9695879597F90895C5
:104160009F930E94AF1F0F9007FCEE5F0C94E91F16
:104170009F938F937F936F93FF93EF939B01AC017A
:104180000E944320EF91FF910E94CC202F913F91FC
:104190004F915F910C944320DF93CF931F930F9324
:1041A000FF92EF92DF927B018C01689406C0DA2EB9
:1041B000EF010E945620FE01E894A59125913591CA
:1041C00045915591A6F3EF010E94EE1DFE01970166
:1041D000A801DA9469F7DF90EF90FF900F911F919B
:1041E000CF91DF91089597FB072E16F4009407D026
:1041F00077FD09D00E94072107FC05D03EF4909579
:1042000081959F4F0895709561957F4F0895AA1BE2
:10421000BB1B51E107C0AA1FBB1FA617B70710F0B1
:10422000A61BB70B881F991F5A95A9F780959095E3
:10423000BC01CD010895EE0FFF1F0590F491E02D14
:064240000994F894FFCF81
:10424600101E00CDCC4C3D0F0000000F0000000AF0
:104256000000000AD7233CCDCCCC3D0A000000006C
:1042660000000000000100FFFFFFFF00E10000006A
:1042760000000000C180810000000000000015055C
:10428600E00636052B057C053A05580500000000BA
:08429600D3075B06A20DA10D88
:00000001FF
